:100000000C942A000C943F000C943F000C943F0089
:100010000C943F000C943F000C943F000C943F0064
:100020000C943F000C943F000C943F000C943F0054
:100030000C943F000C943F000C943F000C943F0044
:100040000C943F000C943F000C943F000C943F0034
:100050000C943F0011241FBECFE5D4E0DEBFCDBF1E
:1000600010E0A0E6B0E0E2E3F2E002C005900D92FD
:10007000AE36B107D9F70E94A1000C9417010C9479
:10008000000010BC8DE489B91BB888E18AB986E804
:1000900080BD08950F931F93DF93CF93CDB7DEB745
:1000A00064970FB6F894DEBF0FBECDBF9C018E01E2
:1000B0000F5F1F4FE0E0F0E010C0C9016AE070E0A0
:1000C0000E94F000D8018D939D938D01C9016AE0D3
:1000D00070E00E94F0009B0131962115310569F70F
:1000E0009F0121503040C901880F991FFE013196B0
:1000F000E80FF91F07C05D9BFECF80818CB92150AE
:100100003040329712161306B4F364960FB6F89483
:10011000DEBF0FBECDBFCF91DF911F910F9108952C
:100120005D9BFECF8CB90895FC018081882321F46A
:100130005D9BFECF1CB80895FFCF5F9BFECF8CB1B7
:100140000895EF92FF920F931F93DF93CF93CDB754
:10015000DEB768970FB6F894DEBF0FBECDBFDE01E5
:100160001D96E0E6F0E08CE001900D928150E1F701
:100170008FEF84BB10BC8DE489B91BB888E18AB9C4
:1001800086E880BD40E050E08E010F5F1F4FBE014A
:10019000635F7F4FF5E5EF2EE0E1FE2EF8015F9BF8
:1001A000FECF8CB18193E617F707C9F720E030E066
:1001B000FB01E20FF31FD801A20FB31F90818C91B6
:1001C000981711F44F5F5F4F2F5F3F4F2C30310571
:1001D00079F74C30510511F4F5BAE0CFE5BADECF2E
:1001E00097FB092E07260AD077FD04D00CD006D045
:1001F00000201AF4709561957F4F0895F6F7909559
:1002000081959F4F0895AA1BBB1B51E107C0AA1FF0
:10021000BB1FA617B70710F0A61BB70B881F991FA7
:100220005A95A9F780959095BC01CD010895F89451
:02023000FFCFFE
:0E023200464530303736454230303633000016
:00000001FF
