:100000000C942A000C9434000C9434000C943400AA
:100010000C9434000C9434000C9434000C94340090
:100020000C9434000C9434000C9434000C94340080
:100030000C9434000C9434000C9434000C94340070
:100040000C9434000C9434000C9434000C94340060
:100050000C94340011241FBECFE5D4E0DEBFCDBF29
:100060000E9436000C945F000C9400001ABA8FEFC7
:100070008BBB84BB61E052E044E038E020E190E2D9
:1000800089B38F70813009F465BB89B38F7082307A
:1000900009F455BB89B38F70833009F445BB89B32C
:1000A0008F70843009F435BB89B38F70853009F4C3
:1000B00025BB89B38F70863019F795BBE1CFF894D3
:0200C000FFCF70
:00000001FF
