:100000000C942A000C9434000C9434000C943400AA
:100010000C9434000C9434000C9434000C94340090
:100020000C9434000C9434000C9434000C94340080
:100030000C9434000C9434000C9434000C94340070
:100040000C9434000C9434000C9434000C94340060
:100050000C94340011241FBECFE5D4E0DEBFCDBF29
:100060000E9443000C944F000C940000A898A99A99
:10007000AA98AB9A0895A898A998AA98AB980895B9
:100080008FE084BB08958FE084BBD198D99AC99939
:1000900003C00E943B00FBCF0E943600F8CFF894CB
:0200A000FFCF90
:00000001FF
