:100000000C942A000C9434000C9434000C943400AA
:100010000C9434000C9434000C9434000C94340090
:100020000C9434000C9434000C9434000C94340080
:100030000C9434000C9434000C9434000C94340070
:100040000C9434000C9434000C9434000C94340060
:100050000C94340011241FBECFE5D4E0DEBFCDBF29
:100060000E9472000C948A000C940000843019F1F4
:10007000853048F48130B9F0813098F08230A9F0B1
:10008000833079F516C08730F9F0883028F4853050
:10009000A1F0863031F515C08830D1F0893009F5EE
:1000A0001CC084EF16C08EEF10C08CEE88BB87EEAC
:1000B00012C08CEE03C086EE08C085EE88BB85EFCB
:1000C0000AC085EE88BB07C08CEF88BB8DEF03C0EC
:1000D00084EE88BB85EE82BB089584EE88BB8DEFED
:1000E00082BB08951F93CF93DF938FEF87BB81BBB4
:1000F00010E0C8ECD0E0812F0E94360088E893E140
:10010000FE013197F1F70197D9F71F5F1A3098F385
:0801100010E0F1CFF894FFCFDD
:00000001FF
