:100000000C942A000C9434000C9434000C943400AA
:100010000C9434000C9434000C9434000C94340090
:100020000C9434000C9434000C9434000C94340080
:100030000C9434000C9434000C9434000C94340070
:100040000C9434000C9434000C9434000C94340060
:100050000C94340011241FBECFE5D4E0DEBFCDBF29
:100060000E9436000C9485000C9400000F931F939F
:10007000CF93DF938FEF84BBC1E0D0E040E850E046
:1000800008EC10E002C0CC0FDD1F842F8C0F85BB65
:1000900020E137E2F8013197F1F721503040D1F7F4
:1000A000CA0162E070E00E945E00AB0116161706FE
:1000B00054F3C1E0D0E040E850E0E7CF97FB092ED1
:1000C00007260AD077FD04D00CD006D000201AF401
:1000D000709561957F4F0895F6F7909581959F4FA4
:1000E0000895AA1BBB1B51E107C0AA1FBB1FA6177F
:1000F000B70710F0A61BB70B881F991F5A95A9F7D1
:0E01000080959095BC01CD010895F894FFCF35
:00000001FF
