:100000000C942A000C9434000C9434000C943400AA
:100010000C9434000C9434000C9434000C94340090
:100020000C9434000C9434000C9434000C94340080
:100030000C9434000C9434000C9434000C94340070
:100040000C9434000C9434000C9434000C94340060
:100050000C94340011241FBECFE5D4E0DEBFCDBF29
:100060000E9496000C9404010C94000010BC8DE4D6
:1000700089B91BB888E18AB986E880BD08950F93D5
:100080001F93DF93CF93CDB7DEB764970FB6F89485
:10009000DEBF0FBECDBF9C018E010F5F1F4FE0E0A2
:1000A000F0E010C0C9016AE070E00E94DD00D801F4
:1000B0008D939D938D01C9016AE070E00E94DD007F
:1000C0009B0131962115310569F79F012150304080
:1000D000C901880F991FFE013196E80FF91F07C06B
:1000E0005D9BFECF80818CB9215030403297121633
:1000F0001306B4F364960FB6F894DEBF0FBECDBFFF
:10010000CF91DF911F910F9108955D9BFECF8CB928
:100110000895FC018081882321F45D9BFECF1CB8EB
:100120000895FFCF5F9BFECF8CB10895CF93DF93EF
:100130008FEF84BB10BC8DE489B91BB888E18AB904
:1001400086E880BD25E596E05F9BFECF8CB18136C9
:10015000A1F44FEF28EC30E045BB80E197E2F901D4
:100160003197F1F70197D9F715BA80E197E2F901D4
:100170003197F1F70197D9F7EFCF823611F495BB9C
:10018000E3CF8336C1F480E890E0C8ECD0E085BBD3
:1001900020E137E2FE013197F1F721503040D1F7ED
:1001A00062E070E00E94DD00CB01161617067CF3BA
:1001B00080E890E0ECCF25BBC7CF97FB092E072640
:1001C0000AD077FD04D00CD006D000201AF4709528
:1001D00061957F4F0895F6F7909581959F4F08950B
:1001E000AA1BBB1B51E107C0AA1FBB1FA617B7075D
:1001F00010F0A61BB70B881F991F5A95A9F7809579
:0C0200009095BC01CD010895F894FFCF4B
:00000001FF
