:100000000C942A000C9447000C9447000C94470071
:100010000C9447000C9447000C9447000C94470044
:100020000C9447000C9447000C9447000C94470034
:100030000C9447000C9447000C9447000C94470024
:100040000C9447000C9447000C9447000C94470014
:100050000C94470011241FBECFE5D4E0DEBFCDBF16
:1000600010E0A0E6B0E0ECE0F3E002C005900D92F5
:10007000A437B107D9F710E0A4E7B0E001C01D92A2
:10008000A737B107E1F70E943C010C9484010C945E
:100090000000AC013091740020E002C02F5F3AE014
:1000A000822F90E084179507C8F330937400209353
:1000B0007500089584E690E00E944900DA9A84E68B
:1000C00090E00E944900DA9808951F93182FDA985B
:1000D0008BB3912F907F8870982B9BBB0E945A0006
:1000E0008BB31295107F8870812B8BBB0E945A00B6
:1000F0001F9108951F93182F8BB3912F907F8870B5
:10010000982B9BBBD89A0E945A008BB31295107FF4
:100110008870812B8BBBD89A0E945A001F9108953A
:10012000EF92FF921F93CF93DF937C01DA9810E058
:1001300013C08BB3907F8870982B9BBBD89A0E947A
:100140005A009BB388818295807F9870892B8BBBE6
:10015000D89A0E945A001F5FE701C10FD11D9881F4
:10016000992339F7DF91CF911F91FF90EF90089578
:1001700080580E946500089580540E94650008958B
:10018000893029F480E20E947A0080E206C08A3039
:1001900021F480E00E94BC0008950E947A00089536
:1001A000EF92FF920F931F93182F64E60E94510164
:1001B000482F282F30E08CE99FEF289F7001299F5E
:1001C000F00C389FF00C1124C701810F911D6AE0DB
:1001D00070E00E945D01062F842F805D0E94C000A8
:1001E000802F805D0E94C000105D1E0D86EF9FEF86
:1001F000089F002D1124802F810F0E94C0001F91A5
:100200000F91FF90EF900895809176008BBB089539
:100210000AC020E030E000002F5F3F4F4CE02C3C54
:100220003407C9F701970097A1F708958BB380931E
:1002300076008FEF8ABB8FE090E00E94080183E098
:100240000E9465008DE290E00E94080182E00E9419
:1002500065008FE090E00E940801DA988FE00E942C
:10026000650082E00E94650080E80E9465008FE0E2
:1002700090E00E9408010895CF93DF930E94160139
:1002800080E690E00E949000C8ECD0E088E10E94F7
:10029000650088E893E1FE013197F1F70197D9F7FE
:1002A000F5CF991B79E004C0991F961708F0961BAB
:1002B000881F7A95C9F78095089597FB092E072620
:1002C0000AD077FD04D00CD006D000201AF4709527
:1002D00061957F4F0895F6F7909581959F4F08950A
:1002E000AA1BBB1B51E107C0AA1FBB1FA617B7075C
:1002F00010F0A61BB70B881F991F5A95A9F7809578
:0C0300009095BC01CD010895F894FFCF4A
:10030C002020202048656C6C6F2065766572796FB3
:04031C006E6500000A
:00000001FF
