:100000000C942A000C943F000C943F000C943F0089
:100010000C943F000C943F000C943F000C943F0064
:100020000C943F000C943F000C943F000C943F0054
:100030000C943F000C943F000C943F000C943F0044
:100040000C943F000C943F000C943F000C943F0034
:100050000C943F0011241FBECFE5D4E0DEBFCDBF1E
:1000600010E0A0E6B0E0EEEEF0E002C005900D92E8
:10007000AA36B107D9F70E9441000C9475000C9480
:100080000000DF93CF93CDB7DEB72A970FB6F89471
:10009000DEBF0FBECDBF8FEF84BBDE011196E0E661
:1000A000F0E08AE001900D928150E1F7DE011196B7
:1000B00048EC50E09E01255F3F4F8C9185BB80E16D
:1000C00097E2FA013197F1F70197D9F71296A21743
:1000D000B30799F780E090E02A960FB6F894DEBF58
:0E00E0000FBECDBFCF91DF910895F894FFCFF2
:0A00EE000A0014001E002800320072
:00000001FF
