:100000000C942A000C9434000C9434000C943400AA
:100010000C9434000C9434000C9434000C94340090
:100020000C9434000C9434000C9434000C94340080
:100030000C9434000C9434000C9434000C94340070
:100040000C9434000C9434000C9434000C94340060
:100050000C94340011241FBECFE5D4E0DEBFCDBF29
:100060000E9436000C9477000C940000CF93DF932D
:100070008FEF84BB67E070E0C1E0D0E0A8ECB0E0B7
:1000800033C025B3CE01042E02C0880F991F0A94F5
:10009000E2F7982F282B25BB20ED37E0FD013197A3
:1000A000F1F721503040D1F785B39095982395BB57
:1000B00080ED97E0FD013197F1F70197D9F74F5F98
:1000C0005F4F64177507ECF625B3CE01062E02C00C
:1000D000880F991F0A94E2F7282B25BB61507040C6
:1000E00077FF02C067E070E040E050E0CACFF894CC
:0200F000FFCF40
:00000001FF
