:100000000C942A000C9434000C9434000C943400AA
:100010000C9434000C9434000C9434000C94340090
:100020000C9434000C9434000C9434000C94340080
:100030000C9434000C9434000C9434000C94340070
:100040000C9434000C9434000C9434000C94340060
:100050000C94340011241FBECFE5D4E0DEBFCDBF29
:100060000E9436000C944C000C9400008FEF84BB6F
:1000700021E030E048EC50E025BB80E197E2FA0156
:100080003197F1F70197D9F7220F331F2138310546
:0C0090009CF321E030E0F0CFF894FFCFAB
:00000001FF
