:100000000C942A000C9434000C9434000C943400AA
:100010000C9434000C9434000C9434000C94340090
:100020000C9434000C9434000C9434000C94340080
:100030000C9434000C9434000C9434000C94340070
:100040000C9434000C9434000C9434000C94340060
:100050000C94340011241FBECFE5D4E0DEBFCDBF29
:100060000E949A000C94E4000C94000010BC8DE4F3
:1000700089B91BB888E18AB986E880BD08950F93D5
:100080001F93DF93CF93CDB7DEB764970FB6F89485
:10009000DEBF0FBECDBF9C018E010F5F1F4FE0E0A2
:1000A000F0E010C0C9016AE070E00E94BD00D80114
:1000B0008D939D938D01C9016AE070E00E94BD009F
:1000C0009B0131962115310569F79F012150304080
:1000D000C901880F991FFE013196E80FF91F07C06B
:1000E0005D9BFECF80818CB9215030403297121633
:1000F0001306B4F364960FB6F894DEBF0FBECDBFFF
:10010000CF91DF911F910F9108955D9BFECF8CB928
:100110000895FC018081882321F45D9BFECF1CB8EB
:100120000895FFCF5F9BFECF8CB108955F9BFECFFC
:100130008CB108958FEF84BB10BC8DE489B91BB8D6
:1001400088E18AB986E880BD55E544E036E02FEFC6
:100150005F9BFECF8CB190E0C0978130910511F488
:1001600025BBF6CF8230910511F435BBF1CF039753
:1001700011F445BBEDCF55BBEBCF97FB092E0726FE
:100180000AD077FD04D00CD006D000201AF4709568
:1001900061957F4F0895F6F7909581959F4F08954B
:1001A000AA1BBB1B51E107C0AA1FBB1FA617B7079D
:1001B00010F0A61BB70B881F991F5A95A9F78095B9
:0C01C0009095BC01CD010895F894FFCF8C
:00000001FF
