:100000000C942A000C943F000C943F000C943F0089
:100010000C943F000C943F000C943F000C943F0064
:100020000C943F000C943F000C943F000C943F0054
:100030000C943F000C943F000C943F000C943F0044
:100040000C943F000C943F000C943F000C943F0034
:100050000C943F0011241FBECFE5D4E0DEBFCDBF1E
:1000600010E0A0E6B0E0EEE0F2E002C005900D92F4
:10007000A636B107D9F70E94AA000C9405010C948A
:100080000000369A349BFECF85B190E00895982FFA
:10009000907F98BBC098C198C29A20ED37E0F901D3
:1000A0003197F1F7C2988295807F88BBC098C1983C
:1000B000C29AC9010197F1F7C2980895982F907FCD
:1000C00098BBC09AC198C29A20ED37E0F9013197E8
:1000D000F1F7C2988295807F88BBC09AC198C29A76
:1000E000C9010197F1F7C298089582E00E94470084
:1000F00088E20E9447008CE00E94470086E00E9450
:1001000047000895CF93DF93EC0184E00E944700FD
:1001100010C0CE016AE070E00E94DE00482FCE01E0
:100120006AE070E00E94DE00EB01842F805D0E9497
:100130005E00209771F7DF91CF910895CF93DF9301
:10014000EC0102C00E945E0089918823D9F7DF91FB
:10015000CF9108950F931F938FEF87BB1ABA0E9418
:10016000750087E886B980EE87B9369A349BFECF52
:1001700005B1369A349BFECF15B180E890E00E941D
:10018000470080E690E00E949E0085E890E00E9493
:100190004700802F90E00E94820080EC90E00E9457
:1001A000470083E690E00E949E0085EC90E00E946C
:1001B0004700812F90E00E948200D7CF97FB092E45
:1001C00007260AD077FD04D00CD006D000201AF400
:1001D000709561957F4F0895F6F7909581959F4FA3
:1001E0000895AA1BBB1B51E107C0AA1FBB1FA6177E
:1001F000B70710F0A61BB70B881F991F5A95A9F7D0
:0E02000080959095BC01CD010895F894FFCF34
:06020E00783D00793D007F
:00000001FF
