:100000000C942A000C9447000C9447000C94470071
:100010000C9447000C9447000C9447000C94470044
:100020000C9447000C9447000C9447000C94470034
:100030000C9447000C9447000C9447000C94470024
:100040000C9447000C9447000C9447000C94470014
:100050000C94470011241FBECFE5D4E0DEBFCDBF16
:1000600010E0A0E6B0E0EEE4F3E002C005900D92EF
:10007000A037B107D9F710E0A0E7B0E001C01D92AA
:10008000A337B107E1F70E9450010C94A5010C942D
:1000900000008AE088BB089585E088BB089518BAFF
:1000A000089582E088BB089586E088BB089581E0CA
:1000B00088BB089589E088BB0895AC013091700039
:1000C00020E002C02F5F3AE0822F90E0841795076E
:1000D000C8F33093700020937100089584E690E097
:1000E0000E945D00DA9A84E690E00E945D00DA9852
:1000F00008951F93182FDA988BB3912F907F8870F3
:10010000982B9BBB0E946E008BB31295107F88705A
:10011000812B8BBB0E946E001F9108951F93182F97
:100120008BB3912F907F8870982B9BBBD89A0E949D
:100130006E008BB31295107F8870812B8BBBD89A81
:100140000E946E001F910895EF92FF921F93CF932C
:10015000DF937C01DA9810E013C08BB3907F887036
:10016000982B9BBBD89A0E946E009BB38881829586
:10017000807F9870892B8BBBD89A0E946E001F5F7E
:10018000E701C10FD11D9881992339F7DF91CF91F4
:100190001F91FF90EF90089580580E947900089574
:1001A00080540E9479000895893029F480E20E94E9
:1001B0008E0080E206C08A3021F480E00E94D000E8
:1001C00008950E948E000895EF92FF920F931F935F
:1001D000182F64E60E947201482F282F30E08CE926
:1001E0009FEF289F7001299FF00C389FF00C11247D
:1001F000C701810F911D6AE070E00E947E01062F09
:10020000842F805D0E94D400802F805D0E94D400E6
:10021000105D1E0D86EF9FEF089F002D1124802F8B
:10022000810F0E94D4001F910F91FF90EF900895CD
:10023000809172008BBB08950AC020E030E000007E
:100240002F5F3F4F4CE02C3C3407C9F701970097D4
:10025000A1F708958BB3809372008FEF8ABB8FE074
:1002600090E00E941C0183E00E9479008DE290E002
:100270000E941C0182E00E9479008FE090E00E94C1
:100280001C01DA988FE00E94790082E00E947900D8
:1002900080E80E9479008FE090E00E941C010895A0
:1002A000CF93DF930E942A0181E00E94790011BA66
:1002B0008FEF82BB87BB89B38F70823011F48AE0E5
:1002C00088BB80E690E00E94A400C8ECD0E088E102
:1002D0000E94790080E197E2FE013197F1F70197E2
:1002E000D9F7F5CF991B79E004C0991F961708F04C
:1002F000961B881F7A95C9F78095089597FB092E5C
:1003000007260AD077FD04D00CD006D000201AF4BE
:10031000709561957F4F0895F6F7909581959F4F61
:100320000895AA1BBB1B51E107C0AA1FBB1FA6173C
:10033000B70710F0A61BB70B881F991F5A95A9F78E
:0E03400080959095BC01CD010895F894FFCFF3
:10034E004D6F76696E6720537472616967687400C9
:00000001FF
