:100000000C942A000C9434000C9434000C943400AA
:100010000C9434000C9434000C9434000C94340090
:100020000C9434000C9434000C9434000C94340080
:100030000C9434000C9434000C9434000C94340070
:100040000C9434000C9434000C9434000C94340060
:100050000C94340011241FBECFE5D4E0DEBFCDBF29
:100060000E944A000C94F4000C9400008AE088BBC3
:10007000089585E088BB089518BA089582E088BB8A
:10008000089586E088BB089581E088BB089589E0E3
:1000900088BB08958FEF87BB8AE088BB80E593EC2F
:1000A00028EC30E0F9013197F1F70197D9F786E0B4
:1000B00088BB80E197E228EC30E0F9013197F1F755
:1000C0000197D9F78AE088BB80E593EC28EC30E013
:1000D000F9013197F1F70197D9F789E088BB80E101
:1000E00097E228EC30E0F9013197F1F70197D9F761
:1000F0008AE088BB80E593EC28EC30E0F901319789
:10010000F1F70197D9F789E088BB80E197E228EC05
:1001100030E0F9013197F1F70197D9F78AE088BB10
:1001200080E593EC28EC30E0F9013197F1F7019785
:10013000D9F789E088BB80E197E228EC30E0F9014B
:100140003197F1F70197D9F78AE088BB80E593EC06
:1001500028EC30E0F9013197F1F70197D9F789E000
:1001600088BB80E197E228EC30E0F9013197F1F7A4
:100170000197D9F78AE088BB80E593EC28EC30E062
:10018000F9013197F1F70197D9F786E088BB80E153
:1001900097E228EC30E0F9013197F1F70197D9F7B0
:1001A0008AE088BB80E593EC28EC30E0F9013197D8
:1001B000F1F70197D9F786E088BB80E197E228EC58
:1001C00030E0F9013197F1F70197D9F78AE088BB60
:1001D00080E593EC28EC30E0F9013197F1F70197D5
:0C01E000D9F780E090E00895F894FFCF7C
:00000001FF
