:100000000C942A000C9434000C9434000C943400AA
:100010000C9434000C9434000C9434000C94340090
:100020000C9434000C9434000C9434000C94340080
:100030000C9434000C9434000C9434000C94340070
:100040000C9434000C9434000C9434000C94340060
:100050000C94340011241FBECFE5D4E0DEBFCDBF29
:100060000E943C000C9455000C940000369A349B7E
:10007000FECF85B190E008958FEF84BB1ABA8BBB99
:1000800087E886B980EE87B936E023E0369A349B5C
:10009000FECF85B190E0873991052CF08A39910522
:0E00A00014F425BBF3CF35BBF1CFF894FFCF9E
:00000001FF
