:100000000C942A000C9434000C9434000C943400AA
:100010000C9434000C9434000C9434000C94340090
:100020000C9434000C9434000C9434000C94340080
:100030000C9434000C9434000C9434000C94340070
:100040000C9434000C9434000C9434000C94340060
:100050000C94340011241FBECFE5D4E0DEBFCDBF29
:100060000E9436000C944C000C9400008FEF84BB6F
:1000700041E028EC30E045BB80E197E2F90131979F
:10008000F1F70197D9F715BA80E197E2F9013197B5
:0C009000F1F70197D9F7EFCFF894FFCFFC
:00000001FF
